:020000040800F2
:10000000005000208D040008290400083104000875
:1000100039040008410400084904000800000000F9
:100020000000000000000000000000005104000873
:100030005D04000800000000690400087504000861
:10004000D5040008D5040008D5040008D50400082C
:10005000D5040008D5040008D5040008D50400081C
:10006000D5040008D5040008D5040008D50400080C
:10007000D5040008D5040008D5040008D5040008FC
:10008000D5040008D5040008D5040008D5040008EC
:10009000D5040008D5040008D5040008D5040008DC
:1000A000D5040008D5040008D5040008D5040008CC
:1000B000D5040008D5040008D5040008D5040008BC
:1000C000D5040008D5040008D5040008D5040008AC
:1000D000D5040008D5040008D5040008D50400089C
:1000E000D5040008D5040008D5040008000000006D
:1000F0000000000000000000000000000000000000
:0C01000000000000000000005FF808F1A3
:10010C0010B5054C237833B9044B13B10448AFF345
:10011C0000800123237010BD2C0000200000000083
:10012C00AC1D000808B5034B1BB103490348AFF3E2
:10013C00008008BD0000000030000020AC1D00084D
:10014C0080B582B000AF00F0C1F900F061F800F0AA
:10015C00CDF800F099F84FF0FF33022228492948D6
:10016C0001F024FA264B1B781BB21B021AB2244B4B
:10017C005B781BB213431BB27B8000237B6033E0A4
:10018C0021497A6813465B0013445B000B441B88BF
:10019C007A889A4225D11C497A6813465B0013442D
:1001AC005B000B4402331A78184B1A7016497A68A4
:1001BC0013465B0013445B000B4404331B881B0A7F
:1001CC009BB2DAB2114B5A700F497A6813465B0036
:1001DC0013445B000B4404331B88DAB20B4B9A704C
:1001EC0005E07B6801337B607B68042BC8DD4FF036
:1001FC00FF3303220549034801F094F8ABE700BF35
:10020C00A00000204800002000000020A4000020D6
:10021C0080B590B000AF07F11803282200211846D2
:10022C0001F091FD3B1D00221A605A609A60DA6061
:10023C001A610223BB610123BB621023FB62002302
:10024C007B6307F11803184600F00AFC0346002BE9
:10025C0001D000F061F80F237B600023BB6000230A
:10026C00FB6000233B6100237B613B1D0021184692
:10027C0000F078FE0346002B01D000F04DF800BFD3
:10028C004037BD4680BD000080B500AF154B164A07
:10029C001A60144B00225A60124B00229A60114BC8
:1002AC000022DA600F4B00221A610E4B00225A61B9
:1002BC000C4B00229A610B4B00221A62094B002254
:1002CC005A62084B00229A62064B0A22DA620548EF
:1002DC0000F0A4FF0346002B01D000F01DF800BF76
:1002EC0080BD00BF480000200030014080B483B0C6
:1002FC0000AF084B9B69074A43F004039361054B1D
:10030C009B6903F004037B607B6800BF0C37BD4620
:10031C0080BC70470010024080B400AF72B600BFC2
:10032C0000BFFDE780B485B000AF154B9B69144A44
:10033C0043F001039361124B9B6903F00103BB6013
:10034C00BB680F4BDB690E4A43F08053D3610C4BF7
:10035C00DB6903F080537B607B680A4B5B68FB6056
:10036C00FB6823F0E063FB60FB6843F08063FB6099
:10037C00044AFB68536000BF1437BD4680BC70470D
:10038C00001002400000014080B588B000AF7860DA
:10039C0007F1100300221A605A609A60DA607B68D9
:1003AC001B681B4A93422FD11A4B9B69194A43F481
:1003BC0080539361174B9B6903F48053FB60FB687C
:1003CC00144B9B69134A43F004039361114B9B69D3
:1003DC0003F00403BB60BB68B0233B6100237B616B
:1003EC000023BB6107F1100319460B4800F0B4F968
:1003FC0040233B6102237B610323FB6107F1100364
:10040C001946054800F0A8F900BF2037BD4680BD4D
:10041C0000300140001002400008014080B400AFE1
:10042C0000BFFDE780B400AF00BFFDE780B400AFB4
:10043C0000BFFDE780B400AF00BFFDE780B400AFA4
:10044C0000BFFDE780B400AF00BFBD4680BC704765
:10045C0080B400AF00BFBD4680BC704780B400AF15
:10046C0000BFBD4680BC704780B500AF00F074F88B
:10047C0000BF80BD80B400AF00BFBD4680BC7047DC
:10048C00FFF7F8FF0B480C490C4A002302E0D45844
:10049C00C4500433C4188C42F9D3094A094C0023C4
:1004AC0001E013600432A242FBD301F055FCFFF7CC
:1004BC0047FE7047000000202C000020F01D0008B3
:1004CC002C000020AC000020FEE7000080B500AF3F
:1004DC00084B1B68074A43F010031360032000F01D
:1004EC0007F90F2000F008F8FFF71CFF002318464F
:1004FC0080BD00BF0020024080B582B000AF7860A4
:10050C00124B1A68124B1B7819464FF47A73B3FBD3
:10051C00F1F3B2FBF3F3184600F011F90346002B8C
:10052C0001D001230EE07B680F2B0AD800227968DA
:10053C004FF0FF3000F0E7F8064A7B6813600023A9
:10054C0000E0012318460837BD4680BD200000207E
:10055C00280000202400002080B400AF054B1B783D
:10056C001A46054B1B681344034A136000BFBD4673
:10057C0080BC704728000020A800002080B400AF89
:10058C00024B1B681846BD4680BC7047A800002073
:10059C0080B485B000AF78607B6803F00703FB6024
:1005AC000C4BDB68BB60BA684FF6FF031340BB60B3
:1005BC00FB681A02BB68134343F0BF6343F4003378
:1005CC00BB60044ABB68D36000BF1437BD4680BC17
:1005DC00704700BF00ED00E080B400AF044BDB6857
:1005EC001B0A03F007031846BD4680BC704700BFCA
:1005FC0000ED00E080B483B000AF03463960FB71BE
:10060C0097F90730002B0ADB3B68DAB20C4997F9F3
:10061C0007301201D2B20B4483F800230AE03B6886
:10062C00DAB20849FB7903F00F03043B1201D2B292
:10063C000B441A7600BF0C37BD4680BC704700BF18
:10064C0000E100E000ED00E080B489B000AFF8609C
:10065C00B9607A60FB6803F00703FB61FB69C3F1C7
:10066C000703042B28BF0423BB61FB690433062B4F
:10067C0002D9FB69033B00E000237B614FF0FF32A2
:10068C00BB6902FA03F3DA43BB681A407B699A40F0
:10069C004FF0FF317B6901FA03F3D9437B680B40C0
:1006AC00134318462437BD4680BC704780B582B0D2
:1006BC0000AF78607B68013BB3F1807F01D30123ED
:1006CC000FE00A4A7B68013B53600F214FF0FF306B
:1006DC00FFF790FF054B00229A60044B07221A602B
:1006EC00002318460837BD4680BD00BF10E000E06F
:1006FC0080B582B000AF78607868FFF749FF00BF23
:10070C000837BD4680BD80B586B000AF0346B960E2
:10071C007A60FB7300237B61FFF75EFF78617A6878
:10072C00B9687869FFF790FF024697F90F301146C8
:10073C001846FFF75FFF00BF1837BD4680BD80B578
:10074C0082B000AF78607868FFF7B0FF03461846B8
:10075C000837BD4680BD000080B48BB000AF786018
:10076C00396000237B6200233B6269E101227B6AD2
:10077C0002FA03F3FB613B681B68FA691340BB6127
:10078C00BA69FB699A4240F058813B685B689A4AA7
:10079C0093425ED0984A934275D8984A934258D067
:1007AC00964A93426FD8964A934252D0944A9342B7
:1007BC0069D8944A93424CD0924A934263D8924A55
:1007CC00934246D0904A93425DD8122B2AD8122BD2
:1007DC0059D801A252F823F05F0800083908000824
:1007EC004B0800088D0800089308000893080008BF
:1007FC009308000893080008930800089308000861
:10080C009308000893080008930800089308000850
:10081C009308000893080008930800084108000892
:10082C0055080008794A934213D02CE03B68DB68EA
:10083C003B6229E03B68DB6804333B6224E03B68A5
:10084C00DB6808333B621FE03B68DB680C333B62C0
:10085C001AE03B689B68002B02D104233B6213E037
:10086C003B689B68012B05D108233B627B68FA69C6
:10087C001A6109E008233B627B68FA695A6103E05C
:10088C0000233B6200E000BFBB69FF2B01D87B68F3
:10089C0001E07B6804337B61BB69FF2B02D87B6A68
:1008AC009B0002E07B6A083B9B003B617B691A68FA
:1008BC000F213B6901FA03F3DB431A40396A3B69A8
:1008CC0001FA03F31A437B691A603B685B6803F017
:1008DC008053002B00F0B1804D4B9B694C4A43F088
:1008EC00010393614A4B9B6903F00103BB60BB6836
:1008FC00484A7B6A9B08023352F82330FB607B6AC0
:10090C0003F003039B000F2202FA03F3DB43FA68A4
:10091C001340FB607B68404A934213D07B683F4A8C
:10092C0093420DD07B683E4A934207D07B683D4A88
:10093C00934201D1032306E0042304E0022302E0E6
:10094C00012300E000237A6A02F003029200934034
:10095C00FA681343FB602F497B6A9B080233FA68E1
:10096C0041F823203B685B6803F48013002B06D00E
:10097C002D4B9A682C49BB6913438B6006E02A4BBC
:10098C009A68BB69DB43284913408B603B685B6802
:10099C0003F40013002B06D0234BDA682249BB6901
:1009AC001343CB6006E0204BDA68BB69DB431E497E
:1009BC001340CB603B685B6803F40033002B06D01C
:1009CC00194B5A681849BB6913434B6006E0164B28
:1009DC005A68BB69DB43144913404B603B685B6846
:1009EC0003F48033002B21D00F4B1A680E49BB69DE
:1009FC0013430B6021E000BF0000321000003110E7
:100A0C000000221000002110000012100000111034
:100A1C00001002400000014000080140000C0140A1
:100A2C000010014000140140000401400B4B1A68F7
:100A3C00BB69DB43094913400B607B6A01337B6262
:100A4C003B681A687B6A22FA03F3002B7FF48EAEA4
:100A5C0000BF00BF2C37BD4680BC7047000401406E
:100A6C0080B586B000AF78607B68002B01D1012384
:100A7C0072E27B681B6803F00103002B00F0878097
:100A8C00924B5B6803F00C03042B0CD08F4B5B6810
:100A9C0003F00C03082B12D18C4B5B6803F48033EE
:100AAC00B3F5803F0BD1894B1B6803F40033002B4B
:100ABC006CD07B685B68002B68D101234CE27B68AF
:100ACC005B68B3F5803F06D1804B1B687F4A43F4CB
:100ADC00803313602EE07B685B68002B0CD17B4B62
:100AEC001B687A4A23F480331360784B1B68774A6F
:100AFC0023F4802313601DE07B685B68B3F5A02FA3
:100B0C000CD1724B1B68714A43F4802313606F4BFA
:100B1C001B686E4A43F4803313600BE06B4B1B680D
:100B2C006A4A23F480331360684B1B68674A23F4CA
:100B3C00802313607B685B68002B13D0FFF71EFDCE
:100B4C00386108E0FFF71AFD02463B69D31A642BA3
:100B5C0001D9032300E25D4B1B6803F40033002B27
:100B6C00F0D014E0FFF70AFD386108E0FFF706FD4E
:100B7C0002463B69D31A642B01D90323ECE1534B96
:100B8C001B6803F40033002BF0D100E000BF7B683E
:100B9C001B6803F00203002B63D04C4B5B6803F023
:100BAC000C03002B0BD0494B5B6803F00C03082B98
:100BBC001CD1464B5B6803F48033002B16D1434B9E
:100BCC001B6803F00203002B05D07B681B69012B0B
:100BDC0001D00123C0E13D4B1B6823F0F8027B6878
:100BEC005B69DB00394913430B603AE07B681B6996
:100BFC00002B20D0364B01221A60FFF7BFFC386166
:100C0C0008E0FFF7BBFC02463B69D31A022B01D963
:100C1C000323A1E12D4B1B6803F00203002BF0D042
:100C2C002A4B1B6823F0F8027B685B69DB002749C1
:100C3C0013430B6015E0264B00221A60FFF79EFC55
:100C4C00386108E0FFF79AFC02463B69D31A022B85
:100C5C0001D9032380E11D4B1B6803F00203002B19
:100C6C00F0D17B681B6803F00803002B3AD07B683B
:100C7C009B69002B19D0174B01221A60FFF77EFCE1
:100C8C00386108E0FFF77AFC02463B69D31A022B65
:100C9C0001D9032360E10D4B5B6A03F00203002BC7
:100CAC00F0D0012000F09CFA1CE00A4B00221A60E4
:100CBC00FFF764FC38610FE0FFF760FC02463B690C
:100CCC00D31A022B08D9032346E100BF00100240BF
:100CDC000000424280044242924B5B6A03F00203E2
:100CEC00002BE9D17B681B6803F00403002B00F098
:100CFC00A6800023FB758B4BDB6903F08053002B24
:100D0C000DD1884BDB69874A43F08053D361854B07
:100D1C00DB6903F08053BB60BB680123FB75824B1E
:100D2C001B6803F48073002B18D17F4B1B687E4A21
:100D3C0043F480731360FFF721FC386108E0FFF780
:100D4C001DFC02463B69D31A642B01D9032303E132
:100D5C00754B1B6803F48073002BF0D07B68DB6849
:100D6C00012B06D16F4B1B6A6E4A43F001031362D1
:100D7C002DE07B68DB68002B0CD16A4B1B6A694A3F
:100D8C0023F001031362674B1B6A664A23F00403CA
:100D9C0013621CE07B68DB68052B0CD1614B1B6A72
:100DAC00604A43F0040313625E4B1B6A5D4A43F0D6
:100DBC00010313620BE05B4B1B6A5A4A23F00103DD
:100DCC001362584B1B6A574A23F0040313627B6867
:100DDC00DB68002B15D0FFF7D1FB38610AE0FFF779
:100DEC00CDFB02463B69D31A41F28832934201D9BA
:100DFC000323B1E04B4B1B6A03F00203002BEED034
:100E0C0014E0FFF7BBFB38610AE0FFF7B7FB0246C3
:100E1C003B69D31A41F28832934201D903239BE0F8
:100E2C00404B1B6A03F00203002BEED1FB7D012B20
:100E3C0005D13C4BDB693B4A23F08053D3617B6883
:100E4C00DB69002B00F08780364B5B6803F00C03EA
:100E5C00082B61D07B68DB69022B46D1334B002217
:100E6C001A60FFF78BFB386108E0FFF787FB02463F
:100E7C003B69D31A022B01D903236DE0294B1B6864
:100E8C0003F00073002BF0D17B681B6AB3F5803F35
:100E9C0008D1244B5B6823F400327B689B682149A2
:100EAC0013434B601F4B5B6823F474127B68196A05
:100EBC007B685B6A0B431B4913434B601B4B012242
:100ECC001A60FFF75BFB386108E0FFF757FB02463F
:100EDC003B69D31A022B01D903233DE0114B1B684C
:100EEC0003F00073002BF0D035E0104B00221A6099
:100EFC00FFF744FB386108E0FFF740FB02463B6913
:100F0C00D31A022B01D9032326E0064B1B6803F0EE
:100F1C000073002BF0D11EE07B68DB69012B07D13D
:100F2C00012319E0001002400070004060004242B2
:100F3C000B4B5B68FB60FB6803F480327B681B6ABD
:100F4C009A4206D1FB6803F470127B685B6A9A4282
:100F5C0001D0012300E0002318461837BD4680BDA0
:100F6C000010024080B584B000AF786039607B68B7
:100F7C00002B01D10123D0E06A4B1B6803F007035F
:100F8C003A689A4210D9674B1B6823F007026549EF
:100F9C003B6813430B60634B1B6803F007033A6811
:100FAC009A4201D00123B8E07B681B6803F002036E
:100FBC00002B20D07B681B6803F00403002B05D0AA
:100FCC00594B5B68584A43F4E06353607B681B6879
:100FDC0003F00803002B05D0534B5B68524A43F4D3
:100FEC0060535360504B5B6823F0F0027B689B6846
:100FFC004D4913434B607B681B6803F00103002BC6
:10100C0040D07B685B68012B07D1474B1B6803F40E
:10101C000033002B15D101237FE07B685B68022B2A
:10102C0007D1414B1B6803F00073002B09D101233E
:10103C0073E03D4B1B6803F00203002B01D101232D
:10104C006BE0394B5B6823F003027B685B683649C5
:10105C0013434B60FFF792FAF8600AE0FFF78EFA41
:10106C000246FB68D31A41F28832934201D903231A
:10107C0053E02D4B5B6803F00C027B685B689B00B4
:10108C009A42EBD1274B1B6803F007033A689A424C
:10109C0010D2244B1B6823F0070222493B681343F0
:1010AC000B60204B1B6803F007033A689A4201D08F
:1010BC00012332E07B681B6803F00403002B08D08B
:1010CC00194B5B6823F4E0627B68DB6816491343B9
:1010DC004B607B681B6803F00803002B09D0124B94
:1010EC005B6823F460527B681B69DB000E49134379
:1010FC004B6000F021F802460B4B5B681B0903F0B8
:10110C000F030A49CB5C22FA03F3094A1360094B1B
:10111C001B681846FFF7F0F9002318461037BD4638
:10112C0080BD00BF0020024000100240C41D00081A
:10113C00200000202400002080B487B000AF0023E2
:10114C00FB600023BB6000237B6100237B600023DA
:10115C003B611E4B5B68FB60FB6803F00C03042BCC
:10116C0002D0082B03D027E0194B3B6127E0FB682A
:10117C009B0C03F00F03174AD35C7B60FB6803F4F2
:10118C008033002B10D0114B5B685B0C03F0010318
:10119C00114AD35CBB607B680D4A03FB02F2BB684F
:1011AC00B2FBF3F37B6104E07B680C4A02FB03F3B4
:1011BC007B617B693B6102E0054B3B6100BF3B6996
:1011CC0018461C37BD4680BC704700BF001002405B
:1011DC0000127A00D41D0008E41D000800093D002F
:1011EC0080B485B000AF78600A4B1B680A4AA2FB3A
:1011FC0003235B0A7A6802FB03F3FB6000BFFB6806
:10120C005A1EFA60002BF9D100BF00BF1437BD463F
:10121C0080BC704720000020D34D621080B582B096
:10122C0000AF78607B68002B01D1012376E07B68EE
:10123C005B6A002B08D17B685B68B3F5827F09D0B1
:10124C007B680022DA6105E07B6800221A617B680A
:10125C0000225A617B6800229A627B6893F85130B5
:10126C00DBB2002B06D17B68002283F85020786813
:10127C00FFF78AF87B68022283F851207B681B6891
:10128C001A687B681B6822F040021A607B685B68F6
:10129C0003F482727B689B6803F404431A437B68F3
:1012AC00DB6803F400631A437B681B6903F00203D9
:1012BC001A437B685B6903F001031A437B689B69E3
:1012CC0003F400731A437B68DB6903F038031A4399
:1012DC007B681B6A03F0800342EA03017B689B6A0C
:1012EC0003F400527B681B680A431A607B689B6995
:1012FC001A0C7B681B6802F004025A607B681B683E
:10130C00DA697B681B6822F40062DA617B68002270
:10131C005A657B68012283F8512000231846083750
:10132C00BD4680BD80B588B000AFF860B9603B6049
:10133C001346FB80FFF722F9F861FB887B83FB687F
:10134C0093F85130DBB2012B01D002232AE1BB68A8
:10135C00002B02D0FB88002B01D1012322E1FB687A
:10136C0093F85030012B01D102231BE1FB680122C1
:10137C0083F85020FB68032283F85120FB6800227D
:10138C005A65FB68BA681A63FB68FA889A86FB6828
:10139C00FA88DA86FB6800229A63FB6800229A8737
:1013AC00FB680022DA87FB6800225A64FB68002283
:1013BC001A64FB689B68B3F5004F0FD1FB681B6880
:1013CC001A68FB681B6822F040021A60FB681B68F5
:1013DC001A68FB681B6842F480421A60FB681B6841
:1013EC001B6803F04003402B07D0FB681B681A688E
:1013FC00FB681B6842F040021A60FB68DB68B3F5BF
:10140C00006F52D1FB685B68002B02D07B8B012BE9
:10141C0045D1FB681B6B1A88FB681B68DA60FB689C
:10142C001B6B9A1CFB681A63FB68DB8E9BB2013B3F
:10143C009AB2FB68DA8632E0FB681B689B6803F0A3
:10144C000203022B12D1FB681B6B1A88FB681B680A
:10145C00DA60FB681B6B9A1CFB681A63FB68DB8EFB
:10146C009BB2013B9AB2FB68DA8618E0FFF786F86C
:10147C000246FB69D31A3A689A4203D83B68B3F127
:10148C00FF3F02D13B68002B09D1FB68012283F896
:10149C005120FB68002283F85020032382E0FB6874
:1014AC00DB8E9BB2002BC7D153E0FB685B68002B33
:1014BC0002D07B8B012B47D1FB681A6BFB681B6836
:1014CC000C3312781A70FB681B6B5A1CFB681A637E
:1014DC00FB68DB8E9BB2013B9AB2FB68DA8633E089
:1014EC00FB681B689B6803F00203022B13D1FB689B
:1014FC001A6BFB681B680C3312781A70FB681B6B39
:10150C005A1CFB681A63FB68DB8E9BB2013B9AB2D8
:10151C00FB68DA8618E0FFF731F80246FB69D31A4C
:10152C003A689A4203D83B68B3F1FF3F02D13B685B
:10153C00002B09D1FB68012283F85120FB680022A3
:10154C0083F8502003232DE0FB68DB8E9BB2002B2D
:10155C00C6D1FA693968F86800F0C4FB0346002B61
:10156C0002D0FB6820225A65FB689B68002B0AD1CD
:10157C0000237B61FB681B68DB687B61FB681B6875
:10158C009B687B617B69FB68012283F85120FB68B7
:10159C00002283F85020FB685B6D002B01D00123E7
:1015AC0000E0002318462037BD4680BD80B588B0CA
:1015BC0002AFF860B9603B601346FB80FB6893F8A0
:1015CC005130DBB2012B01D0022304E1FB685B68D4
:1015DC00B3F5827F12D1FB689B68002B0ED1FB68A0
:1015EC00042283F85120FA883B6800931346BA68AA
:1015FC00B968F86800F0F3F80346ECE0FEF7BEFFBC
:10160C007861BB68002B02D0FB88002B01D1012331
:10161C00E1E0FB6893F85030012B01D10223DAE0B2
:10162C00FB68012283F85020FB68042283F85120C8
:10163C00FB6800225A65FB68BA689A63FB68FA88F3
:10164C009A87FB68FA88DA87FB6800221A63FB68C2
:10165C0000229A86FB680022DA86FB6800221A6454
:10166C00FB6800225A64FB689B68B3F5004F0FD1EE
:10167C00FB681B681A68FB681B6822F040021A6042
:10168C00FB681B681A68FB681B6822F480421A60AE
:10169C00FB681B681B6803F04003402B07D0FB68FA
:1016AC001B681A68FB681B6842F040021A60FB68F2
:1016BC00DB68002B70D135E0FB681B689B6803F07E
:1016CC000103012B15D1FB681B6803F10C02FB68AD
:1016DC009B6B1278D2B21A70FB689B6B5A1CFB681E
:1016EC009A63FB68DB8F9BB2013B9AB2FB68DA878B
:1016FC0018E0FEF743FF02467B69D31A3A689A4218
:10170C0003D83B68B3F1FF3F02D13B68002B09D1F2
:10171C00FB68012283F85120FB68002283F85020DB
:10172C00032358E0FB68DB8F9BB2002BC4D138E05D
:10173C00FB681B689B6803F00103012B13D1FB684A
:10174C001B68DA68FB689B6B92B21A80FB689B6B18
:10175C009A1CFB689A63FB68DB8F9BB2013B9AB2C5
:10176C00FB68DA8718E0FEF709FF02467B69D31A9B
:10177C003A689A4203D83B68B3F1FF3F02D13B6809
:10178C00002B09D1FB68012283F85120FB68002251
:10179C0083F8502003231EE0FB68DB8F9BB2002BE9
:1017AC00C6D17A693968F86800F04AFA0346002B0A
:1017BC0002D0FB6820225A65FB68012283F8512075
:1017CC00FB68002283F85020FB685B6D002B01D076
:1017DC00012300E0002318461837BD4680BD80B5B4
:1017EC008AB000AFF860B9607A607B8001237B62BD
:1017FC00FEF7C4FE3862FB6893F85130FB77FB6848
:10180C005B68BB617B88FB82FB7F012B0CD0BB69C7
:10181C00B3F5827F06D1FB689B68002B02D1FB7F5E
:10182C00042B01D002237FE1BB68002B05D07B6821
:10183C00002B02D07B88002B01D1012374E1FB68C3
:10184C0093F85030012B01D102236DE1FB6801228A
:10185C0083F85020FB6893F85130DBB2042B03D093
:10186C00FB68052283F85120FB6800225A65FB684F
:10187C007A689A63FB687A88DA87FB687A889A8731
:10188C00FB68BA681A63FB687A88DA86FB687A8820
:10189C009A86FB6800221A64FB6800225A64FB6873
:1018AC001B681B6803F04003402B07D0FB681B68C8
:1018BC001A68FB681B6842F040021A60FB68DB6820
:1018CC00B3F5006F7ED1FB685B68002B02D0FB8AFE
:1018DC00012B6CD1FB681B6B1A88FB681B68DA60E8
:1018EC00FB681B6B9A1CFB681A63FB68DB8E9BB254
:1018FC00013B9AB2FB68DA8659E0FB681B689B686F
:10190C0003F00203022B1BD1FB68DB8E9BB2002B76
:10191C0016D07B6A012B13D1FB681B6B1A88FB68F2
:10192C001B68DA60FB681B6B9A1CFB681A63FB680C
:10193C00DB8E9BB2013B9AB2FB68DA8600237B629A
:10194C00FB681B689B6803F00103012B19D1FB6832
:10195C00DB8F9BB2002B14D0FB681B68DA68FB682A
:10196C009B6B92B21A80FB689B6B9A1CFB689A6308
:10197C00FB68DB8F9BB2013B9AB2FB68DA870123D1
:10198C007B62FEF7FBFD02463B6AD31A3A6B9A4226
:10199C000DD83B6BB3F1FF3F09D0FB68012283F8F4
:1019AC005120FB68002283F850200323BCE0FB6825
:1019BC00DB8E9BB2002BA0D1FB68DB8F9BB2002B84
:1019CC009BD182E0FB685B68002B02D0FB8A012B69
:1019DC0071D1FB681A6BFB681B680C3312781A7098
:1019EC00FB681B6B5A1CFB681A63FB68DB8E9BB293
:1019FC00013B9AB2FB68DA865DE0FB681B689B686A
:101A0C0003F00203022B1CD1FB68DB8E9BB2002B74
:101A1C0017D07B6A012B14D1FB681A6BFB681B680F
:101A2C000C3312781A70FB681B6B5A1CFB681A6318
:101A3C00FB68DB8E9BB2013B9AB2FB68DA86002313
:101A4C007B62FB681B689B6803F00103012B19D1B7
:101A5C00FB68DB8F9BB2002B14D0FB681B68DA6829
:101A6C00FB689B6BD2B21A70FB689B6B5A1CFB68B1
:101A7C009A63FB68DB8F9BB2013B9AB2FB68DA87F7
:101A8C0001237B62FEF77AFD02463B6AD31A3A6B5E
:101A9C009A4203D83B6BB3F1FF3F02D13B6B002B57
:101AAC0009D1FB68012283F85120FB68002283F8DE
:101ABC005020032338E0FB68DB8E9BB2002B9CD1BB
:101ACC00FB68DB8F9BB2002B97D13A6A396BF868B5
:101ADC0000F008F90346002B08D0FB6820225A6559
:101AEC00FB68002283F8502001231DE0FB689B68F3
:101AFC00002B0AD100233B61FB681B68DB683B6150
:101B0C00FB681B689B683B613B69FB68012283F89F
:101B1C005120FB68002283F85020FB685B6D002B82
:101B2C0001D0012300E0002318462837BD4680BDB4
:101B3C0080B588B000AFF860B9603B601346FB71AC
:101B4C00FEF71CFD0246BB6A9B1A3A681344FB6104
:101B5C00FEF714FDB861394B1B685B011B0DFA696C
:101B6C0002FB03F37B6154E03B68B3F1FF3F50D0C1
:101B7C00FEF704FD0246BB69D31AFA699A4202D9F0
:101B8C00FB69002B3DD1FB681B685A68FB681B681E
:101B9C0022F0E0025A60FB685B68B3F5827F11D1DA
:101BAC00FB689B68B3F5004F04D0FB689B68B3F5EA
:101BBC00806F07D1FB681B681A68FB681B6822F0F2
:101BCC0040021A60FB689B6AB3F5005F0FD1FB689B
:101BDC001B681A68FB681B6822F400521A60FB68C9
:101BEC001B681A68FB681B6842F400521A60FB6899
:101BFC00012283F85120FB68002283F85020032334
:101C0C0017E07B69002B01D10023FB617B69013B51
:101C1C007B61FB681B689A68BB681340BA689A4280
:101C2C000CBF01230023DBB21A46FB799A429BD1ED
:101C3C00002318462037BD4680BD00BF2000002081
:101C4C0080B586B002AFF860B9607A60FB685B68FB
:101C5C00B3F5827F11D1FB689B68B3F5004F04D0BC
:101C6C00FB689B68B3F5806F07D1FB681B681A682B
:101C7C00FB681B6822F040021A60FB685B68B3F5D6
:101C8C00827F17D1FB689B68B3F5806F12D17B689C
:101C9C000093BB6800220121F868FFF749FF034657
:101CAC00002B1AD0FB685B6D43F02002FB685A6571
:101CBC00032313E07B680093BB6800228021F86843
:101CCC00FFF736FF0346002B07D0FB685B6D43F034
:101CDC002002FB685A65032300E0002318461037E6
:101CEC00BD4680BD80B586B002AFF860B9607A6041
:101CFC007B680093BB6801220221F868FFF718FF8C
:101D0C000346002B07D0FB685B6D43F02002FB6899
:101D1C005A65032313E07B680093BB680022802183
:101D2C00F868FFF705FF0346002B07D0FB685B6DD7
:101D3C0043F02002FB685A65032300E00023184699
:101D4C001037BD4680BD03460244934200D1704714
:101D5C0003F8011BF9E7000070B500260C4D0D4C83
:101D6C00641BA410A64209D100F01AF800260A4DF3
:101D7C000A4C641BA410A64205D170BD55F8043B57
:101D8C0098470136EEE755F8043B98470136F2E7E1
:101D9C00E81D0008E81D0008E81D0008EC1D0008FF
:101DAC00F8B500BFF8BC08BC9E467047F8B500BF3C
:081DBC00F8BC08BC9E4670470C
:101DC40000000000000000000102030406070809E7
:101DD40002030405060708090A0B0C0D0E0F101068
:041DE40001020000F8
:041DE80031010008BD
:041DEC000D010008DD
:101DF00001107B00C80002108E00960003108A00BC
:101E0000640004107300DC0005106D001801000070
:0C1E100000127A00100000000100000029
:040000050800048D5E
:00000001FF
